{
  "contractName": "Utils",
  "abi": [
    {
      "inputs": [
        {
          "internalType": "uint256",
          "name": "truePriceTokenA",
          "type": "uint256"
        },
        {
          "internalType": "uint256",
          "name": "truePriceTokenB",
          "type": "uint256"
        },
        {
          "internalType": "uint256",
          "name": "reserveA",
          "type": "uint256"
        },
        {
          "internalType": "uint256",
          "name": "reserveB",
          "type": "uint256"
        }
      ],
      "name": "computeProfitMaximizingTrade",
      "outputs": [
        {
          "internalType": "bool",
          "name": "aToB",
          "type": "bool"
        },
        {
          "internalType": "uint256",
          "name": "amountIn",
          "type": "uint256"
        }
      ],
      "stateMutability": "pure",
      "type": "function"
    }
  ],
  "bytecode": "0x608060405234801561001057600080fd5b5061051b806100206000396000f3fe608060405234801561001057600080fd5b506004361061002b5760003560e01c8063fa65315414610030575b600080fd5b61007a6004803603608081101561004657600080fd5b810190808035906020019092919080359060200190929190803590602001909291908035906020019092919050505061009b565b60405180831515151581526020018281526020019250505060405180910390f35b600080856100aa85878661019b565b10915060006100c2848661027b90919063ffffffff16565b905060006101196101146100e16103e88561027b90919063ffffffff16565b866100ec57896100ee565b8a5b61010f6103e5896100ff578d610101565b8c5b61027b90919063ffffffff16565b61019b565b610310565b905060006103e58561013f5761013a6103e88861027b90919063ffffffff16565b610155565b6101546103e88961027b90919063ffffffff16565b5b8161015c57fe5b049050808210156101795760008080905094509450505050610192565b61018c818361037290919063ffffffff16565b93505050505b94509492505050565b60008060006101aa86866103f5565b91509150600084806101b857fe5b8688099050828111156101cc576001820391505b808303925060008214156101ee578483816101e357fe5b049350505050610274565b848210610263576040517f08c379a000000000000000000000000000000000000000000000000000000000815260040180806020018281038252601a8152602001807f46756c6c4d6174683a2046554c4c4449565f4f564552464c4f5700000000000081525060200191505060405180910390fd5b61026e838387610448565b93505050505b9392505050565b600080821480610298575082828385029250828161029557fe5b04145b61030a576040517f08c379a00000000000000000000000000000000000000000000000000000000081526004018080602001828103825260148152602001807f64732d6d6174682d6d756c2d6f766572666c6f7700000000000000000000000081525060200191505060405180910390fd5b92915050565b6000600382111561035f57819050600060016002848161032c57fe5b040190505b818110156103595780915060028182858161034857fe5b04018161035157fe5b049050610331565b5061036d565b6000821461036c57600190505b5b919050565b60008282840391508111156103ef576040517f08c379a00000000000000000000000000000000000000000000000000000000081526004018080602001828103825260158152602001807f64732d6d6174682d7375622d756e646572666c6f77000000000000000000000081525060200191505060405180910390fd5b92915050565b60008060007fffffffffffffffffffffffffffffffffffffffffffffffffffffffffffffffff8061042257fe5b84860990508385029250828103915082811015610440576001820391505b509250929050565b600080826000038316905080838161045c57fe5b04925080858161046857fe5b049450600181826000038161047957fe5b0401840285019450600060019050808402600203810290508084026002038102905080840260020381029050808402600203810290508084026002038102905080840260020381029050808402600203810290508084026002038102905080860292505050939250505056fea2646970667358221220d4eeacd1a2200e62440c3d89cbb634369ec613720efe0adefb2ee0b1b43684b664736f6c63430006060033",
  "immutableReferences": {},
  "source": "pragma solidity =0.6.6;\n\nimport '@uniswap/lib/contracts/libraries/Babylonian.sol';\nimport '@uniswap/v2-periphery/contracts/libraries/SafeMath.sol';\nimport './FullMath.sol';\n\ncontract Utils {\n    using SafeMath for uint256;\n\n    // computes the direction and magnitude of the profit-maximizing trade\n    function computeProfitMaximizingTrade(\n        uint256 truePriceTokenA,\n        uint256 truePriceTokenB,\n        uint256 reserveA,\n        uint256 reserveB\n    ) pure public returns (bool aToB, uint256 amountIn) {\n        aToB = FullMath.mulDiv(reserveA, truePriceTokenB, reserveB) < truePriceTokenA;\n\n        uint256 invariant = reserveA.mul(reserveB);\n\n        uint256 leftSide = Babylonian.sqrt(\n            FullMath.mulDiv(\n                invariant.mul(1000),\n                aToB ? truePriceTokenA : truePriceTokenB,\n                (aToB ? truePriceTokenB : truePriceTokenA).mul(997)\n            )\n        );\n        uint256 rightSide = (aToB ? reserveA.mul(1000) : reserveB.mul(1000)) / 997;\n\n        if (leftSide < rightSide) return (false, 0);\n\n        // compute the amount that must be sent to move the price to the profit-maximizing price\n        amountIn = leftSide.sub(rightSide);\n    }\n\n}\n",
  "sourcePath": "/home/sammy/ropsten/contracts/Utils.sol",
  "compiler": {
    "name": "solc",
    "version": "0.6.6+commit.6c089d02.Emscripten.clang"
  },
  "schemaVersion": "3.2.3",
  "updatedAt": "2021-05-04T13:57:46.311Z",
  "devdoc": {
    "methods": {}
  },
  "userdoc": {
    "methods": {}
  }
}